{
  "contractName": "CardFactory",
  "abi": [
    {
      "anonymous": false,
      "inputs": [
        {
          "indexed": false,
          "internalType": "uint256",
          "name": "zombieId",
          "type": "uint256"
        },
        {
          "indexed": false,
          "internalType": "string",
          "name": "name",
          "type": "string"
        },
        {
          "indexed": false,
          "internalType": "uint256",
          "name": "dna",
          "type": "uint256"
        }
      ],
      "name": "NewCard",
      "type": "event"
    },
    {
      "anonymous": false,
      "inputs": [
        {
          "indexed": true,
          "internalType": "address",
          "name": "previousOwner",
          "type": "address"
        },
        {
          "indexed": true,
          "internalType": "address",
          "name": "newOwner",
          "type": "address"
        }
      ],
      "name": "OwnershipTransferred",
      "type": "event"
    },
    {
      "inputs": [
        {
          "internalType": "uint256",
          "name": "",
          "type": "uint256"
        }
      ],
      "name": "cardToOwner",
      "outputs": [
        {
          "internalType": "address",
          "name": "",
          "type": "address"
        }
      ],
      "stateMutability": "view",
      "type": "function",
      "constant": true
    },
    {
      "inputs": [
        {
          "internalType": "uint256",
          "name": "",
          "type": "uint256"
        }
      ],
      "name": "cards",
      "outputs": [
        {
          "internalType": "string",
          "name": "name",
          "type": "string"
        },
        {
          "internalType": "uint256",
          "name": "dna",
          "type": "uint256"
        },
        {
          "internalType": "uint32",
          "name": "level",
          "type": "uint32"
        },
        {
          "internalType": "uint32",
          "name": "readyTime",
          "type": "uint32"
        },
        {
          "internalType": "uint16",
          "name": "winCount",
          "type": "uint16"
        },
        {
          "internalType": "uint16",
          "name": "lossCount",
          "type": "uint16"
        }
      ],
      "stateMutability": "view",
      "type": "function",
      "constant": true
    },
    {
      "inputs": [],
      "name": "owner",
      "outputs": [
        {
          "internalType": "address",
          "name": "",
          "type": "address"
        }
      ],
      "stateMutability": "view",
      "type": "function",
      "constant": true
    },
    {
      "inputs": [],
      "name": "renounceOwnership",
      "outputs": [],
      "stateMutability": "nonpayable",
      "type": "function"
    },
    {
      "inputs": [
        {
          "internalType": "address",
          "name": "newOwner",
          "type": "address"
        }
      ],
      "name": "transferOwnership",
      "outputs": [],
      "stateMutability": "nonpayable",
      "type": "function"
    },
    {
      "inputs": [
        {
          "internalType": "string",
          "name": "_name",
          "type": "string"
        }
      ],
      "name": "createRandomCard",
      "outputs": [],
      "stateMutability": "nonpayable",
      "type": "function"
    }
  ],
  "bytecode": "0x60806040526010600155600154600a6200001a9190620002b1565b600255620151806003553480156200003157600080fd5b5062000052620000466200005860201b60201c565b6200006060201b60201c565b62000302565b600033905090565b60008060009054906101000a900473ffffffffffffffffffffffffffffffffffffffff169050816000806101000a81548173ffffffffffffffffffffffffffffffffffffffff021916908373ffffffffffffffffffffffffffffffffffffffff1602179055508173ffffffffffffffffffffffffffffffffffffffff168173ffffffffffffffffffffffffffffffffffffffff167f8be0079c531659141344cd1fd0a4f28419497f9722a3daafe3b4186f6b6457e060405160405180910390a35050565b7f4e487b7100000000000000000000000000000000000000000000000000000000600052601160045260246000fd5b60008160011c9050919050565b6000808291508390505b6001851115620001b2578086048111156200018a576200018962000124565b5b60018516156200019a5780820291505b8081029050620001aa8562000153565b94506200016a565b94509492505050565b600082620001cd5760019050620002a0565b81620001dd5760009050620002a0565b8160018114620001f65760028114620002015762000237565b6001915050620002a0565b60ff84111562000216576200021562000124565b5b8360020a91508482111562000230576200022f62000124565b5b50620002a0565b5060208310610133831016604e8410600b8410161715620002715782820a9050838111156200026b576200026a62000124565b5b620002a0565b62000280848484600162000160565b925090508184048111156200029a576200029962000124565b5b81810290505b9392505050565b6000819050919050565b6000620002be82620002a7565b9150620002cb83620002a7565b9250620002fa7fffffffffffffffffffffffffffffffffffffffffffffffffffffffffffffffff8484620001bb565b905092915050565b6111f380620003126000396000f3fe608060405234801561001057600080fd5b50600436106100625760003560e01c80634575981e14610067578063715018a6146100835780638da5cb5b1461008d5780638dc10768146100ab578063f2fde38b146100e0578063ffb976ec146100fc575b600080fd5b610081600480360381019061007c91906108b7565b61012c565b005b61008b6101e6565b005b6100956101fa565b6040516100a29190610945565b60405180910390f35b6100c560048036038101906100c09190610996565b610223565b6040516100d796959493929190610aa7565b60405180910390f35b6100fa60048036038101906100f59190610b3b565b610333565b005b61011660048036038101906101119190610996565b6103b6565b6040516101239190610945565b60405180910390f35b6000600660003373ffffffffffffffffffffffffffffffffffffffff1673ffffffffffffffffffffffffffffffffffffffff16815260200190815260200160002054146101ae576040517f08c379a00000000000000000000000000000000000000000000000000000000081526004016101a590610bb4565b60405180910390fd5b60006101ba83836103e9565b90506064816101c99190610c03565b816101d49190610c63565b90506101e1838383610431565b505050565b6101ee6106e8565b6101f86000610766565b565b60008060009054906101000a900473ffffffffffffffffffffffffffffffffffffffff16905090565b6004818154811061023357600080fd5b906000526020600020906003020160009150905080600001805461025690610cc6565b80601f016020809104026020016040519081016040528092919081815260200182805461028290610cc6565b80156102cf5780601f106102a4576101008083540402835291602001916102cf565b820191906000526020600020905b8154815290600101906020018083116102b257829003601f168201915b5050505050908060010154908060020160009054906101000a900463ffffffff16908060020160049054906101000a900463ffffffff16908060020160089054906101000a900461ffff169080600201600a9054906101000a900461ffff16905086565b61033b6106e8565b600073ffffffffffffffffffffffffffffffffffffffff168173ffffffffffffffffffffffffffffffffffffffff16036103aa576040517f08c379a00000000000000000000000000000000000000000000000000000000081526004016103a190610d69565b60405180910390fd5b6103b381610766565b50565b60056020528060005260406000206000915054906101000a900473ffffffffffffffffffffffffffffffffffffffff1681565b60008083836040516020016103ff929190610dc8565b6040516020818303038152906040528051906020012060001c9050600254816104289190610c03565b91505092915050565b60046040518060c0016040528085858080601f016020809104026020016040519081016040528093929190818152602001838380828437600081840152601f19601f820116905080830192505050505050508152602001838152602001600163ffffffff168152602001600354426104a99190610de1565b63ffffffff168152602001600061ffff168152602001600061ffff16815250908060018154018082558091505060019003906000526020600020906003020160009091909190915060008201518160000190816105069190611012565b506020820151816001015560408201518160020160006101000a81548163ffffffff021916908363ffffffff16021790555060608201518160020160046101000a81548163ffffffff021916908363ffffffff16021790555060808201518160020160086101000a81548161ffff021916908361ffff16021790555060a082015181600201600a6101000a81548161ffff021916908361ffff1602179055505050600060016004805490506105bb9190610c63565b9050336005600083815260200190815260200160002060006101000a81548173ffffffffffffffffffffffffffffffffffffffff021916908373ffffffffffffffffffffffffffffffffffffffff1602179055506106626001600660003373ffffffffffffffffffffffffffffffffffffffff1673ffffffffffffffffffffffffffffffffffffffff1681526020019081526020016000205461082a90919063ffffffff16565b600660003373ffffffffffffffffffffffffffffffffffffffff1673ffffffffffffffffffffffffffffffffffffffff168152602001908152602001600020819055507fc26d056b0cf208db2b1b44041aed71d24e75bd1b4ca5994bc6d06e9a72b6e580818585856040516106da9493929190611111565b60405180910390a150505050565b6106f0610840565b73ffffffffffffffffffffffffffffffffffffffff1661070e6101fa565b73ffffffffffffffffffffffffffffffffffffffff1614610764576040517f08c379a000000000000000000000000000000000000000000000000000000000815260040161075b9061119d565b60405180910390fd5b565b60008060009054906101000a900473ffffffffffffffffffffffffffffffffffffffff169050816000806101000a81548173ffffffffffffffffffffffffffffffffffffffff021916908373ffffffffffffffffffffffffffffffffffffffff1602179055508173ffffffffffffffffffffffffffffffffffffffff168173ffffffffffffffffffffffffffffffffffffffff167f8be0079c531659141344cd1fd0a4f28419497f9722a3daafe3b4186f6b6457e060405160405180910390a35050565b600081836108389190610de1565b905092915050565b600033905090565b600080fd5b600080fd5b600080fd5b600080fd5b600080fd5b60008083601f84011261087757610876610852565b5b8235905067ffffffffffffffff81111561089457610893610857565b5b6020830191508360018202830111156108b0576108af61085c565b5b9250929050565b600080602083850312156108ce576108cd610848565b5b600083013567ffffffffffffffff8111156108ec576108eb61084d565b5b6108f885828601610861565b92509250509250929050565b600073ffffffffffffffffffffffffffffffffffffffff82169050919050565b600061092f82610904565b9050919050565b61093f81610924565b82525050565b600060208201905061095a6000830184610936565b92915050565b6000819050919050565b61097381610960565b811461097e57600080fd5b50565b6000813590506109908161096a565b92915050565b6000602082840312156109ac576109ab610848565b5b60006109ba84828501610981565b91505092915050565b600081519050919050565b600082825260208201905092915050565b60005b838110156109fd5780820151818401526020810190506109e2565b83811115610a0c576000848401525b50505050565b6000601f19601f8301169050919050565b6000610a2e826109c3565b610a3881856109ce565b9350610a488185602086016109df565b610a5181610a12565b840191505092915050565b610a6581610960565b82525050565b600063ffffffff82169050919050565b610a8481610a6b565b82525050565b600061ffff82169050919050565b610aa181610a8a565b82525050565b600060c0820190508181036000830152610ac18189610a23565b9050610ad06020830188610a5c565b610add6040830187610a7b565b610aea6060830186610a7b565b610af76080830185610a98565b610b0460a0830184610a98565b979650505050505050565b610b1881610924565b8114610b2357600080fd5b50565b600081359050610b3581610b0f565b92915050565b600060208284031215610b5157610b50610848565b5b6000610b5f84828501610b26565b91505092915050565b7f596f7520616c7265616479206861766520612063617264000000000000000000600082015250565b6000610b9e6017836109ce565b9150610ba982610b68565b602082019050919050565b60006020820190508181036000830152610bcd81610b91565b9050919050565b7f4e487b7100000000000000000000000000000000000000000000000000000000600052601260045260246000fd5b6000610c0e82610960565b9150610c1983610960565b925082610c2957610c28610bd4565b5b828206905092915050565b7f4e487b7100000000000000000000000000000000000000000000000000000000600052601160045260246000fd5b6000610c6e82610960565b9150610c7983610960565b925082821015610c8c57610c8b610c34565b5b828203905092915050565b7f4e487b7100000000000000000000000000000000000000000000000000000000600052602260045260246000fd5b60006002820490506001821680610cde57607f821691505b602082108103610cf157610cf0610c97565b5b50919050565b7f4f776e61626c653a206e6577206f776e657220697320746865207a65726f206160008201527f6464726573730000000000000000000000000000000000000000000000000000602082015250565b6000610d536026836109ce565b9150610d5e82610cf7565b604082019050919050565b60006020820190508181036000830152610d8281610d46565b9050919050565b600081905092915050565b82818337600083830152505050565b6000610daf8385610d89565b9350610dbc838584610d94565b82840190509392505050565b6000610dd5828486610da3565b91508190509392505050565b6000610dec82610960565b9150610df783610960565b9250827fffffffffffffffffffffffffffffffffffffffffffffffffffffffffffffffff03821115610e2c57610e2b610c34565b5b828201905092915050565b7f4e487b7100000000000000000000000000000000000000000000000000000000600052604160045260246000fd5b60008190508160005260206000209050919050565b60006020601f8301049050919050565b600082821b905092915050565b600060088302610ec87fffffffffffffffffffffffffffffffffffffffffffffffffffffffffffffffff82610e8b565b610ed28683610e8b565b95508019841693508086168417925050509392505050565b6000819050919050565b6000610f0f610f0a610f0584610960565b610eea565b610960565b9050919050565b6000819050919050565b610f2983610ef4565b610f3d610f3582610f16565b848454610e98565b825550505050565b600090565b610f52610f45565b610f5d818484610f20565b505050565b5b81811015610f8157610f76600082610f4a565b600181019050610f63565b5050565b601f821115610fc657610f9781610e66565b610fa084610e7b565b81016020851015610faf578190505b610fc3610fbb85610e7b565b830182610f62565b50505b505050565b600082821c905092915050565b6000610fe960001984600802610fcb565b1980831691505092915050565b60006110028383610fd8565b9150826002028217905092915050565b61101b826109c3565b67ffffffffffffffff81111561103457611033610e37565b5b61103e8254610cc6565b611049828285610f85565b600060209050601f83116001811461107c576000841561106a578287015190505b6110748582610ff6565b8655506110dc565b601f19841661108a86610e66565b60005b828110156110b25784890151825560018201915060208501945060208101905061108d565b868310156110cf57848901516110cb601f891682610fd8565b8355505b6001600288020188555050505b505050505050565b60006110f083856109ce565b93506110fd838584610d94565b61110683610a12565b840190509392505050565b60006060820190506111266000830187610a5c565b81810360208301526111398185876110e4565b90506111486040830184610a5c565b95945050505050565b7f4f776e61626c653a2063616c6c6572206973206e6f7420746865206f776e6572600082015250565b60006111876020836109ce565b915061119282611151565b602082019050919050565b600060208201905081810360008301526111b68161117a565b905091905056fea2646970667358221220772cd69a14e6ee7cd8cb4cdaa350cd7fa82faa8700fe5ad066eddfcd69559e1e64736f6c634300080f0033",
  "immutableReferences": {},
  "source": "// SPDX-License-Identifier: UNLICENSED\npragma solidity ^0.8.4;\n\nimport \"@openzeppelin/contracts/access/Ownable.sol\";\nimport \"@openzeppelin/contracts/utils/math/SafeMath.sol\";\n\ncontract CardFactory is Ownable {\n\n  using SafeMath for uint256;\n\n  event NewCard(uint zombieId, string name, uint dna);\n\n  uint dnaDigits = 16;\n  uint dnaModulus = 10 ** dnaDigits;\n  uint cooldownTime = 1 days;\n\n  struct Card {\n    string name;\n    uint dna;\n    uint32 level;\n    uint32 readyTime;\n    uint16 winCount;\n    uint16 lossCount;\n  }\n\n  Card[] public cards;\n\n  mapping (uint => address) public cardToOwner;\n  mapping (address => uint) ownerCardCount;\n\n  function _createCard(string calldata _name, uint _dna) internal {\n    cards.push(Card(_name, _dna, 1, uint32(block.timestamp + cooldownTime), 0, 0));\n    uint id = cards.length - 1;\n    cardToOwner[id] = msg.sender;\n    ownerCardCount[msg.sender] = ownerCardCount[msg.sender].add(1);\n    emit NewCard(id, _name, _dna);\n  }\n\n  function _generateRandomDna(string calldata _str) private view returns (uint) {\n    uint rand = uint(keccak256(abi.encodePacked(_str)));\n    return rand % dnaModulus;\n  }\n\n  function createRandomCard(string calldata _name) public {\n    require(ownerCardCount[msg.sender] == 0, \"You already have a card\");\n    uint randDna = _generateRandomDna(_name);\n    randDna = randDna - randDna % 100;\n    _createCard(_name, randDna);\n  }\n\n}",
  "sourcePath": "/Users/julianwulff/Documents/Datalogi_MSc/05_SBT/Project/contracts/CardFactory.sol",
  "compiler": {
    "name": "solc",
    "version": "0.8.15+commit.e14f2714.Emscripten.clang"
  },
  "schemaVersion": "3.4.8",
  "updatedAt": "2022-08-15T19:35:33.606Z",
  "networkType": "ethereum",
  "devdoc": {
    "kind": "dev",
    "methods": {
      "owner()": {
        "details": "Returns the address of the current owner."
      },
      "renounceOwnership()": {
        "details": "Leaves the contract without owner. It will not be possible to call `onlyOwner` functions anymore. Can only be called by the current owner. NOTE: Renouncing ownership will leave the contract without an owner, thereby removing any functionality that is only available to the owner."
      },
      "transferOwnership(address)": {
        "details": "Transfers ownership of the contract to a new account (`newOwner`). Can only be called by the current owner."
      }
    },
    "version": 1
  },
  "userdoc": {
    "kind": "user",
    "methods": {},
    "version": 1
  }
}