{
  "contractName": "CardFactory",
  "abi": [
    {
      "anonymous": false,
      "inputs": [
        {
          "indexed": false,
          "internalType": "uint256",
          "name": "zombieId",
          "type": "uint256"
        },
        {
          "indexed": false,
          "internalType": "string",
          "name": "name",
          "type": "string"
        },
        {
          "indexed": false,
          "internalType": "uint256",
          "name": "dna",
          "type": "uint256"
        }
      ],
      "name": "NewCard",
      "type": "event"
    },
    {
      "anonymous": false,
      "inputs": [
        {
          "indexed": true,
          "internalType": "address",
          "name": "previousOwner",
          "type": "address"
        },
        {
          "indexed": true,
          "internalType": "address",
          "name": "newOwner",
          "type": "address"
        }
      ],
      "name": "OwnershipTransferred",
      "type": "event"
    },
    {
      "inputs": [
        {
          "internalType": "uint256",
          "name": "",
          "type": "uint256"
        }
      ],
      "name": "cardToOwner",
      "outputs": [
        {
          "internalType": "address",
          "name": "",
          "type": "address"
        }
      ],
      "stateMutability": "view",
      "type": "function",
      "constant": true
    },
    {
      "inputs": [
        {
          "internalType": "uint256",
          "name": "",
          "type": "uint256"
        }
      ],
      "name": "cards",
      "outputs": [
        {
          "internalType": "string",
          "name": "name",
          "type": "string"
        },
        {
          "internalType": "uint256",
          "name": "dna",
          "type": "uint256"
        },
        {
          "internalType": "uint32",
          "name": "level",
          "type": "uint32"
        },
        {
          "internalType": "uint32",
          "name": "readyTime",
          "type": "uint32"
        },
        {
          "internalType": "uint16",
          "name": "winCount",
          "type": "uint16"
        },
        {
          "internalType": "uint16",
          "name": "lossCount",
          "type": "uint16"
        }
      ],
      "stateMutability": "view",
      "type": "function",
      "constant": true
    },
    {
      "inputs": [],
      "name": "owner",
      "outputs": [
        {
          "internalType": "address",
          "name": "",
          "type": "address"
        }
      ],
      "stateMutability": "view",
      "type": "function",
      "constant": true
    },
    {
      "inputs": [],
      "name": "renounceOwnership",
      "outputs": [],
      "stateMutability": "nonpayable",
      "type": "function"
    },
    {
      "inputs": [
        {
          "internalType": "address",
          "name": "newOwner",
          "type": "address"
        }
      ],
      "name": "transferOwnership",
      "outputs": [],
      "stateMutability": "nonpayable",
      "type": "function"
    },
    {
      "inputs": [
        {
          "internalType": "string",
          "name": "_name",
          "type": "string"
        }
      ],
      "name": "createRandomCard",
      "outputs": [],
      "stateMutability": "nonpayable",
      "type": "function"
    }
  ],
  "bytecode": "0x60806040526010600155600154600a6200001a9190620002b1565b600255620151806003553480156200003157600080fd5b5062000052620000466200005860201b60201c565b6200006060201b60201c565b62000302565b600033905090565b60008060009054906101000a900473ffffffffffffffffffffffffffffffffffffffff169050816000806101000a81548173ffffffffffffffffffffffffffffffffffffffff021916908373ffffffffffffffffffffffffffffffffffffffff1602179055508173ffffffffffffffffffffffffffffffffffffffff168173ffffffffffffffffffffffffffffffffffffffff167f8be0079c531659141344cd1fd0a4f28419497f9722a3daafe3b4186f6b6457e060405160405180910390a35050565b7f4e487b7100000000000000000000000000000000000000000000000000000000600052601160045260246000fd5b60008160011c9050919050565b6000808291508390505b6001851115620001b2578086048111156200018a576200018962000124565b5b60018516156200019a5780820291505b8081029050620001aa8562000153565b94506200016a565b94509492505050565b600082620001cd5760019050620002a0565b81620001dd5760009050620002a0565b8160018114620001f65760028114620002015762000237565b6001915050620002a0565b60ff84111562000216576200021562000124565b5b8360020a91508482111562000230576200022f62000124565b5b50620002a0565b5060208310610133831016604e8410600b8410161715620002715782820a9050838111156200026b576200026a62000124565b5b620002a0565b62000280848484600162000160565b925090508184048111156200029a576200029962000124565b5b81810290505b9392505050565b6000819050919050565b6000620002be82620002a7565b9150620002cb83620002a7565b9250620002fa7fffffffffffffffffffffffffffffffffffffffffffffffffffffffffffffffff8484620001bb565b905092915050565b61115180620003126000396000f3fe608060405234801561001057600080fd5b50600436106100625760003560e01c80634575981e14610067578063715018a6146100835780638da5cb5b1461008d5780638dc10768146100ab578063f2fde38b146100e0578063ffb976ec146100fc575b600080fd5b610081600480360381019061007c9190610881565b61012c565b005b61008b6101b0565b005b6100956101c4565b6040516100a2919061090f565b60405180910390f35b6100c560048036038101906100c09190610960565b6101ed565b6040516100d796959493929190610a71565b60405180910390f35b6100fa60048036038101906100f59190610b05565b6102fd565b005b61011660048036038101906101119190610960565b610380565b604051610123919061090f565b60405180910390f35b6000600660003373ffffffffffffffffffffffffffffffffffffffff1673ffffffffffffffffffffffffffffffffffffffff168152602001908152602001600020541461017857600080fd5b600061018483836103b3565b90506064816101939190610b61565b8161019e9190610bc1565b90506101ab8383836103fb565b505050565b6101b86106b2565b6101c26000610730565b565b60008060009054906101000a900473ffffffffffffffffffffffffffffffffffffffff16905090565b600481815481106101fd57600080fd5b906000526020600020906003020160009150905080600001805461022090610c24565b80601f016020809104026020016040519081016040528092919081815260200182805461024c90610c24565b80156102995780601f1061026e57610100808354040283529160200191610299565b820191906000526020600020905b81548152906001019060200180831161027c57829003601f168201915b5050505050908060010154908060020160009054906101000a900463ffffffff16908060020160049054906101000a900463ffffffff16908060020160089054906101000a900461ffff169080600201600a9054906101000a900461ffff16905086565b6103056106b2565b600073ffffffffffffffffffffffffffffffffffffffff168173ffffffffffffffffffffffffffffffffffffffff1603610374576040517f08c379a000000000000000000000000000000000000000000000000000000000815260040161036b90610cc7565b60405180910390fd5b61037d81610730565b50565b60056020528060005260406000206000915054906101000a900473ffffffffffffffffffffffffffffffffffffffff1681565b60008083836040516020016103c9929190610d26565b6040516020818303038152906040528051906020012060001c9050600254816103f29190610b61565b91505092915050565b60046040518060c0016040528085858080601f016020809104026020016040519081016040528093929190818152602001838380828437600081840152601f19601f820116905080830192505050505050508152602001838152602001600163ffffffff168152602001600354426104739190610d3f565b63ffffffff168152602001600061ffff168152602001600061ffff16815250908060018154018082558091505060019003906000526020600020906003020160009091909190915060008201518160000190816104d09190610f70565b506020820151816001015560408201518160020160006101000a81548163ffffffff021916908363ffffffff16021790555060608201518160020160046101000a81548163ffffffff021916908363ffffffff16021790555060808201518160020160086101000a81548161ffff021916908361ffff16021790555060a082015181600201600a6101000a81548161ffff021916908361ffff1602179055505050600060016004805490506105859190610bc1565b9050336005600083815260200190815260200160002060006101000a81548173ffffffffffffffffffffffffffffffffffffffff021916908373ffffffffffffffffffffffffffffffffffffffff16021790555061062c6001600660003373ffffffffffffffffffffffffffffffffffffffff1673ffffffffffffffffffffffffffffffffffffffff168152602001908152602001600020546107f490919063ffffffff16565b600660003373ffffffffffffffffffffffffffffffffffffffff1673ffffffffffffffffffffffffffffffffffffffff168152602001908152602001600020819055507fc26d056b0cf208db2b1b44041aed71d24e75bd1b4ca5994bc6d06e9a72b6e580818585856040516106a4949392919061106f565b60405180910390a150505050565b6106ba61080a565b73ffffffffffffffffffffffffffffffffffffffff166106d86101c4565b73ffffffffffffffffffffffffffffffffffffffff161461072e576040517f08c379a0000000000000000000000000000000000000000000000000000000008152600401610725906110fb565b60405180910390fd5b565b60008060009054906101000a900473ffffffffffffffffffffffffffffffffffffffff169050816000806101000a81548173ffffffffffffffffffffffffffffffffffffffff021916908373ffffffffffffffffffffffffffffffffffffffff1602179055508173ffffffffffffffffffffffffffffffffffffffff168173ffffffffffffffffffffffffffffffffffffffff167f8be0079c531659141344cd1fd0a4f28419497f9722a3daafe3b4186f6b6457e060405160405180910390a35050565b600081836108029190610d3f565b905092915050565b600033905090565b600080fd5b600080fd5b600080fd5b600080fd5b600080fd5b60008083601f8401126108415761084061081c565b5b8235905067ffffffffffffffff81111561085e5761085d610821565b5b60208301915083600182028301111561087a57610879610826565b5b9250929050565b6000806020838503121561089857610897610812565b5b600083013567ffffffffffffffff8111156108b6576108b5610817565b5b6108c28582860161082b565b92509250509250929050565b600073ffffffffffffffffffffffffffffffffffffffff82169050919050565b60006108f9826108ce565b9050919050565b610909816108ee565b82525050565b60006020820190506109246000830184610900565b92915050565b6000819050919050565b61093d8161092a565b811461094857600080fd5b50565b60008135905061095a81610934565b92915050565b60006020828403121561097657610975610812565b5b60006109848482850161094b565b91505092915050565b600081519050919050565b600082825260208201905092915050565b60005b838110156109c75780820151818401526020810190506109ac565b838111156109d6576000848401525b50505050565b6000601f19601f8301169050919050565b60006109f88261098d565b610a028185610998565b9350610a128185602086016109a9565b610a1b816109dc565b840191505092915050565b610a2f8161092a565b82525050565b600063ffffffff82169050919050565b610a4e81610a35565b82525050565b600061ffff82169050919050565b610a6b81610a54565b82525050565b600060c0820190508181036000830152610a8b81896109ed565b9050610a9a6020830188610a26565b610aa76040830187610a45565b610ab46060830186610a45565b610ac16080830185610a62565b610ace60a0830184610a62565b979650505050505050565b610ae2816108ee565b8114610aed57600080fd5b50565b600081359050610aff81610ad9565b92915050565b600060208284031215610b1b57610b1a610812565b5b6000610b2984828501610af0565b91505092915050565b7f4e487b7100000000000000000000000000000000000000000000000000000000600052601260045260246000fd5b6000610b6c8261092a565b9150610b778361092a565b925082610b8757610b86610b32565b5b828206905092915050565b7f4e487b7100000000000000000000000000000000000000000000000000000000600052601160045260246000fd5b6000610bcc8261092a565b9150610bd78361092a565b925082821015610bea57610be9610b92565b5b828203905092915050565b7f4e487b7100000000000000000000000000000000000000000000000000000000600052602260045260246000fd5b60006002820490506001821680610c3c57607f821691505b602082108103610c4f57610c4e610bf5565b5b50919050565b7f4f776e61626c653a206e6577206f776e657220697320746865207a65726f206160008201527f6464726573730000000000000000000000000000000000000000000000000000602082015250565b6000610cb1602683610998565b9150610cbc82610c55565b604082019050919050565b60006020820190508181036000830152610ce081610ca4565b9050919050565b600081905092915050565b82818337600083830152505050565b6000610d0d8385610ce7565b9350610d1a838584610cf2565b82840190509392505050565b6000610d33828486610d01565b91508190509392505050565b6000610d4a8261092a565b9150610d558361092a565b9250827fffffffffffffffffffffffffffffffffffffffffffffffffffffffffffffffff03821115610d8a57610d89610b92565b5b828201905092915050565b7f4e487b7100000000000000000000000000000000000000000000000000000000600052604160045260246000fd5b60008190508160005260206000209050919050565b60006020601f8301049050919050565b600082821b905092915050565b600060088302610e267fffffffffffffffffffffffffffffffffffffffffffffffffffffffffffffffff82610de9565b610e308683610de9565b95508019841693508086168417925050509392505050565b6000819050919050565b6000610e6d610e68610e638461092a565b610e48565b61092a565b9050919050565b6000819050919050565b610e8783610e52565b610e9b610e9382610e74565b848454610df6565b825550505050565b600090565b610eb0610ea3565b610ebb818484610e7e565b505050565b5b81811015610edf57610ed4600082610ea8565b600181019050610ec1565b5050565b601f821115610f2457610ef581610dc4565b610efe84610dd9565b81016020851015610f0d578190505b610f21610f1985610dd9565b830182610ec0565b50505b505050565b600082821c905092915050565b6000610f4760001984600802610f29565b1980831691505092915050565b6000610f608383610f36565b9150826002028217905092915050565b610f798261098d565b67ffffffffffffffff811115610f9257610f91610d95565b5b610f9c8254610c24565b610fa7828285610ee3565b600060209050601f831160018114610fda5760008415610fc8578287015190505b610fd28582610f54565b86555061103a565b601f198416610fe886610dc4565b60005b8281101561101057848901518255600182019150602085019450602081019050610feb565b8683101561102d5784890151611029601f891682610f36565b8355505b6001600288020188555050505b505050505050565b600061104e8385610998565b935061105b838584610cf2565b611064836109dc565b840190509392505050565b60006060820190506110846000830187610a26565b8181036020830152611097818587611042565b90506110a66040830184610a26565b95945050505050565b7f4f776e61626c653a2063616c6c6572206973206e6f7420746865206f776e6572600082015250565b60006110e5602083610998565b91506110f0826110af565b602082019050919050565b60006020820190508181036000830152611114816110d8565b905091905056fea2646970667358221220e3404c1e2f40b0e375ac7757ae6deac361048b03987e31cb28f3f019aa19f0ad64736f6c634300080f0033",
  "immutableReferences": {},
  "source": "// SPDX-License-Identifier: UNLICENSED\npragma solidity ^0.8.4;\n\nimport \"@openzeppelin/contracts/access/Ownable.sol\";\nimport \"@openzeppelin/contracts/utils/math/SafeMath.sol\";\n\ncontract CardFactory is Ownable {\n\n  using SafeMath for uint256;\n\n  event NewCard(uint zombieId, string name, uint dna);\n\n  uint dnaDigits = 16;\n  uint dnaModulus = 10 ** dnaDigits;\n  uint cooldownTime = 1 days;\n\n  struct Card {\n    string name;\n    uint dna;\n    uint32 level;\n    uint32 readyTime;\n    uint16 winCount;\n    uint16 lossCount;\n  }\n\n  Card[] public cards;\n\n  mapping (uint => address) public cardToOwner;\n  mapping (address => uint) ownerCardCount;\n\n  function _createCard(string calldata _name, uint _dna) internal {\n    cards.push(Card(_name, _dna, 1, uint32(block.timestamp + cooldownTime), 0, 0));\n    uint id = cards.length - 1;\n    cardToOwner[id] = msg.sender;\n    ownerCardCount[msg.sender] = ownerCardCount[msg.sender].add(1);\n    emit NewCard(id, _name, _dna);\n  }\n\n  function _generateRandomDna(string calldata _str) private view returns (uint) {\n    uint rand = uint(keccak256(abi.encodePacked(_str)));\n    return rand % dnaModulus;\n  }\n\n  function createRandomCard(string calldata _name) public {\n    require(ownerCardCount[msg.sender] == 0);\n    uint randDna = _generateRandomDna(_name);\n    randDna = randDna - randDna % 100;\n    _createCard(_name, randDna);\n  }\n\n}",
  "sourcePath": "/Users/julianwulff/Documents/Datalogi_MSc/05_SBT/Project/contracts/CardFactory.sol",
  "compiler": {
    "name": "solc",
    "version": "0.8.15+commit.e14f2714.Emscripten.clang"
  },
  "schemaVersion": "3.4.8",
  "updatedAt": "2022-08-15T14:49:18.366Z",
  "networkType": "ethereum",
  "devdoc": {
    "kind": "dev",
    "methods": {
      "owner()": {
        "details": "Returns the address of the current owner."
      },
      "renounceOwnership()": {
        "details": "Leaves the contract without owner. It will not be possible to call `onlyOwner` functions anymore. Can only be called by the current owner. NOTE: Renouncing ownership will leave the contract without an owner, thereby removing any functionality that is only available to the owner."
      },
      "transferOwnership(address)": {
        "details": "Transfers ownership of the contract to a new account (`newOwner`). Can only be called by the current owner."
      }
    },
    "version": 1
  },
  "userdoc": {
    "kind": "user",
    "methods": {},
    "version": 1
  }
}