{
  "contractName": "TCGReg",
  "abi": [
    {
      "inputs": [
        {
          "internalType": "address",
          "name": "token",
          "type": "address"
        }
      ],
      "stateMutability": "nonpayable",
      "type": "constructor"
    },
    {
      "anonymous": false,
      "inputs": [
        {
          "indexed": true,
          "internalType": "address",
          "name": "previousOwner",
          "type": "address"
        },
        {
          "indexed": true,
          "internalType": "address",
          "name": "newOwner",
          "type": "address"
        }
      ],
      "name": "OwnershipTransferred",
      "type": "event"
    },
    {
      "inputs": [],
      "name": "owner",
      "outputs": [
        {
          "internalType": "address",
          "name": "",
          "type": "address"
        }
      ],
      "stateMutability": "view",
      "type": "function",
      "constant": true
    },
    {
      "inputs": [],
      "name": "renounceOwnership",
      "outputs": [],
      "stateMutability": "nonpayable",
      "type": "function"
    },
    {
      "inputs": [],
      "name": "token_addr",
      "outputs": [
        {
          "internalType": "address",
          "name": "",
          "type": "address"
        }
      ],
      "stateMutability": "view",
      "type": "function",
      "constant": true
    },
    {
      "inputs": [
        {
          "internalType": "address",
          "name": "newOwner",
          "type": "address"
        }
      ],
      "name": "transferOwnership",
      "outputs": [],
      "stateMutability": "nonpayable",
      "type": "function"
    },
    {
      "inputs": [],
      "name": "register",
      "outputs": [],
      "stateMutability": "nonpayable",
      "type": "function"
    },
    {
      "inputs": [
        {
          "internalType": "address",
          "name": "who",
          "type": "address"
        }
      ],
      "name": "getPlayerLevel",
      "outputs": [
        {
          "internalType": "uint256",
          "name": "",
          "type": "uint256"
        }
      ],
      "stateMutability": "view",
      "type": "function",
      "constant": true
    },
    {
      "inputs": [
        {
          "internalType": "address",
          "name": "token",
          "type": "address"
        }
      ],
      "name": "changeTokenAddr",
      "outputs": [],
      "stateMutability": "nonpayable",
      "type": "function"
    }
  ],
  "bytecode": "0x608060405234801561001057600080fd5b50604051610ab1380380610ab1833981810160405281019061003291906101c4565b61004e61004361009560201b60201c565b61009d60201b60201c565b80600260006101000a81548173ffffffffffffffffffffffffffffffffffffffff021916908373ffffffffffffffffffffffffffffffffffffffff160217905550506101f1565b600033905090565b60008060009054906101000a900473ffffffffffffffffffffffffffffffffffffffff169050816000806101000a81548173ffffffffffffffffffffffffffffffffffffffff021916908373ffffffffffffffffffffffffffffffffffffffff1602179055508173ffffffffffffffffffffffffffffffffffffffff168173ffffffffffffffffffffffffffffffffffffffff167f8be0079c531659141344cd1fd0a4f28419497f9722a3daafe3b4186f6b6457e060405160405180910390a35050565b600080fd5b600073ffffffffffffffffffffffffffffffffffffffff82169050919050565b600061019182610166565b9050919050565b6101a181610186565b81146101ac57600080fd5b50565b6000815190506101be81610198565b92915050565b6000602082840312156101da576101d9610161565b5b60006101e8848285016101af565b91505092915050565b6108b1806102006000396000f3fe608060405234801561001057600080fd5b506004361061007d5760003560e01c80638b56b77a1161005b5780638b56b77a146100c65780638da5cb5b146100e4578063c40450a814610102578063f2fde38b1461011e5761007d565b80631aa3a0081461008257806334b735a11461008c578063715018a6146100bc575b600080fd5b61008a61013a565b005b6100a660048036038101906100a19190610609565b610257565b6040516100b3919061064f565b60405180910390f35b6100c461032a565b005b6100ce61033e565b6040516100db9190610679565b60405180910390f35b6100ec610364565b6040516100f99190610679565b60405180910390f35b61011c60048036038101906101179190610609565b61038d565b005b61013860048036038101906101339190610609565b6103d9565b005b60003390506000600160008373ffffffffffffffffffffffffffffffffffffffff1673ffffffffffffffffffffffffffffffffffffffff16815260200190815260200160002060010154146101c4576040517f08c379a00000000000000000000000000000000000000000000000000000000081526004016101bb906106f1565b60405180910390fd5b6000600160008373ffffffffffffffffffffffffffffffffffffffff1673ffffffffffffffffffffffffffffffffffffffff168152602001908152602001600020600101819055506032600160008373ffffffffffffffffffffffffffffffffffffffff1673ffffffffffffffffffffffffffffffffffffffff1681526020019081526020016000206002018190555050565b6000816000600160008373ffffffffffffffffffffffffffffffffffffffff1673ffffffffffffffffffffffffffffffffffffffff16815260200190815260200160002060010154036102df576040517f08c379a00000000000000000000000000000000000000000000000000000000081526004016102d69061075d565b60405180910390fd5b600160008473ffffffffffffffffffffffffffffffffffffffff1673ffffffffffffffffffffffffffffffffffffffff16815260200190815260200160002060010154915050919050565b61033261045c565b61033c60006104da565b565b600260009054906101000a900473ffffffffffffffffffffffffffffffffffffffff1681565b60008060009054906101000a900473ffffffffffffffffffffffffffffffffffffffff16905090565b61039561045c565b80600260006101000a81548173ffffffffffffffffffffffffffffffffffffffff021916908373ffffffffffffffffffffffffffffffffffffffff16021790555050565b6103e161045c565b600073ffffffffffffffffffffffffffffffffffffffff168173ffffffffffffffffffffffffffffffffffffffff1603610450576040517f08c379a0000000000000000000000000000000000000000000000000000000008152600401610447906107ef565b60405180910390fd5b610459816104da565b50565b61046461059e565b73ffffffffffffffffffffffffffffffffffffffff16610482610364565b73ffffffffffffffffffffffffffffffffffffffff16146104d8576040517f08c379a00000000000000000000000000000000000000000000000000000000081526004016104cf9061085b565b60405180910390fd5b565b60008060009054906101000a900473ffffffffffffffffffffffffffffffffffffffff169050816000806101000a81548173ffffffffffffffffffffffffffffffffffffffff021916908373ffffffffffffffffffffffffffffffffffffffff1602179055508173ffffffffffffffffffffffffffffffffffffffff168173ffffffffffffffffffffffffffffffffffffffff167f8be0079c531659141344cd1fd0a4f28419497f9722a3daafe3b4186f6b6457e060405160405180910390a35050565b600033905090565b600080fd5b600073ffffffffffffffffffffffffffffffffffffffff82169050919050565b60006105d6826105ab565b9050919050565b6105e6816105cb565b81146105f157600080fd5b50565b600081359050610603816105dd565b92915050565b60006020828403121561061f5761061e6105a6565b5b600061062d848285016105f4565b91505092915050565b6000819050919050565b61064981610636565b82525050565b60006020820190506106646000830184610640565b92915050565b610673816105cb565b82525050565b600060208201905061068e600083018461066a565b92915050565b600082825260208201905092915050565b7f506c6179657220697320616c7265616479207265676973746572656400000000600082015250565b60006106db601c83610694565b91506106e6826106a5565b602082019050919050565b6000602082019050818103600083015261070a816106ce565b9050919050565b7f506c617965722069736e27742072656769737465726564000000000000000000600082015250565b6000610747601783610694565b915061075282610711565b602082019050919050565b600060208201905081810360008301526107768161073a565b9050919050565b7f4f776e61626c653a206e6577206f776e657220697320746865207a65726f206160008201527f6464726573730000000000000000000000000000000000000000000000000000602082015250565b60006107d9602683610694565b91506107e48261077d565b604082019050919050565b60006020820190508181036000830152610808816107cc565b9050919050565b7f4f776e61626c653a2063616c6c6572206973206e6f7420746865206f776e6572600082015250565b6000610845602083610694565b91506108508261080f565b602082019050919050565b6000602082019050818103600083015261087481610838565b905091905056fea2646970667358221220f6f60e6e47964c7ef6addb3006a646f3e0119d425d77149269513de1eb35570764736f6c634300080f0033",
  "immutableReferences": {},
  "source": "// SPDX-License-Identifier: MIT\npragma solidity ^0.8.4;\n\nimport \"@openzeppelin/contracts/access/Ownable.sol\";\n\ncontract TCGReg is Ownable {\n\n    struct PlayerInfo{\n        uint256 trades;\n        uint256 playerLevel;\n        uint256 reputation;\n    }\n\n    // Internal so we can 'hide' information in some calls\n    mapping (address => PlayerInfo) internal _playerInfo;\n\n    address public token_addr;\n\n    constructor(address token) Ownable() {\n        token_addr = token;\n    }\n\n    modifier isRegistered(address who) {\n        require (_playerInfo[who].playerLevel != 0, \"Player isn't registered\");\n        _;\n    }\n    \n    function register() public {\n        address who = msg.sender;\n        require(_playerInfo[who].playerLevel == 0, \"Player is already registered\");\n        _playerInfo[who].playerLevel = 0;\n        _playerInfo[who].reputation = 50;\n    }\n\n    function getPlayerLevel(address who) public isRegistered(who) view returns(uint256){\n        return _playerInfo[who].playerLevel;\n    }\n\n    function changeTokenAddr(address token) public onlyOwner{\n        token_addr = token;\n    }\n\n}",
  "sourcePath": "/Users/julianwulff/Documents/Datalogi_MSc/05_SBT/Project/contracts/PlayerRegistry.sol",
  "compiler": {
    "name": "solc",
    "version": "0.8.15+commit.e14f2714.Emscripten.clang"
  },
  "schemaVersion": "3.4.8",
  "updatedAt": "2022-08-16T11:15:44.719Z",
  "networkType": "ethereum",
  "devdoc": {
    "kind": "dev",
    "methods": {
      "owner()": {
        "details": "Returns the address of the current owner."
      },
      "renounceOwnership()": {
        "details": "Leaves the contract without owner. It will not be possible to call `onlyOwner` functions anymore. Can only be called by the current owner. NOTE: Renouncing ownership will leave the contract without an owner, thereby removing any functionality that is only available to the owner."
      },
      "transferOwnership(address)": {
        "details": "Transfers ownership of the contract to a new account (`newOwner`). Can only be called by the current owner."
      }
    },
    "version": 1
  },
  "userdoc": {
    "kind": "user",
    "methods": {},
    "version": 1
  }
}