{
  "contractName": "TCGTok",
  "abi": [
    {
      "inputs": [],
      "stateMutability": "nonpayable",
      "type": "constructor"
    },
    {
      "anonymous": false,
      "inputs": [
        {
          "indexed": true,
          "internalType": "address",
          "name": "owner",
          "type": "address"
        },
        {
          "indexed": true,
          "internalType": "address",
          "name": "approved",
          "type": "address"
        },
        {
          "indexed": true,
          "internalType": "uint256",
          "name": "tokenId",
          "type": "uint256"
        }
      ],
      "name": "Approval",
      "type": "event"
    },
    {
      "anonymous": false,
      "inputs": [
        {
          "indexed": true,
          "internalType": "address",
          "name": "owner",
          "type": "address"
        },
        {
          "indexed": true,
          "internalType": "address",
          "name": "operator",
          "type": "address"
        },
        {
          "indexed": false,
          "internalType": "bool",
          "name": "approved",
          "type": "bool"
        }
      ],
      "name": "ApprovalForAll",
      "type": "event"
    },
    {
      "anonymous": false,
      "inputs": [
        {
          "indexed": true,
          "internalType": "address",
          "name": "previousOwner",
          "type": "address"
        },
        {
          "indexed": true,
          "internalType": "address",
          "name": "newOwner",
          "type": "address"
        }
      ],
      "name": "OwnershipTransferred",
      "type": "event"
    },
    {
      "anonymous": false,
      "inputs": [
        {
          "indexed": true,
          "internalType": "address",
          "name": "from",
          "type": "address"
        },
        {
          "indexed": true,
          "internalType": "address",
          "name": "to",
          "type": "address"
        },
        {
          "indexed": true,
          "internalType": "uint256",
          "name": "tokenId",
          "type": "uint256"
        }
      ],
      "name": "Transfer",
      "type": "event"
    },
    {
      "inputs": [
        {
          "internalType": "uint256",
          "name": "",
          "type": "uint256"
        }
      ],
      "name": "_stats",
      "outputs": [
        {
          "internalType": "uint8",
          "name": "_rarity",
          "type": "uint8"
        },
        {
          "internalType": "uint8",
          "name": "_str",
          "type": "uint8"
        },
        {
          "internalType": "uint8",
          "name": "_def",
          "type": "uint8"
        },
        {
          "internalType": "uint8",
          "name": "_hlt",
          "type": "uint8"
        },
        {
          "internalType": "uint256",
          "name": "traded",
          "type": "uint256"
        }
      ],
      "stateMutability": "view",
      "type": "function"
    },
    {
      "inputs": [
        {
          "internalType": "address",
          "name": "to",
          "type": "address"
        },
        {
          "internalType": "uint256",
          "name": "tokenId",
          "type": "uint256"
        }
      ],
      "name": "approve",
      "outputs": [],
      "stateMutability": "nonpayable",
      "type": "function"
    },
    {
      "inputs": [
        {
          "internalType": "address",
          "name": "owner",
          "type": "address"
        }
      ],
      "name": "balanceOf",
      "outputs": [
        {
          "internalType": "uint256",
          "name": "",
          "type": "uint256"
        }
      ],
      "stateMutability": "view",
      "type": "function"
    },
    {
      "inputs": [
        {
          "internalType": "uint256",
          "name": "tokenId",
          "type": "uint256"
        }
      ],
      "name": "burn",
      "outputs": [],
      "stateMutability": "nonpayable",
      "type": "function"
    },
    {
      "inputs": [
        {
          "internalType": "uint256",
          "name": "tokenId",
          "type": "uint256"
        }
      ],
      "name": "getApproved",
      "outputs": [
        {
          "internalType": "address",
          "name": "",
          "type": "address"
        }
      ],
      "stateMutability": "view",
      "type": "function"
    },
    {
      "inputs": [
        {
          "internalType": "address",
          "name": "owner",
          "type": "address"
        },
        {
          "internalType": "address",
          "name": "operator",
          "type": "address"
        }
      ],
      "name": "isApprovedForAll",
      "outputs": [
        {
          "internalType": "bool",
          "name": "",
          "type": "bool"
        }
      ],
      "stateMutability": "view",
      "type": "function"
    },
    {
      "inputs": [],
      "name": "name",
      "outputs": [
        {
          "internalType": "string",
          "name": "",
          "type": "string"
        }
      ],
      "stateMutability": "view",
      "type": "function"
    },
    {
      "inputs": [
        {
          "internalType": "address",
          "name": "",
          "type": "address"
        },
        {
          "internalType": "uint256",
          "name": "",
          "type": "uint256"
        }
      ],
      "name": "openTradeOffers",
      "outputs": [
        {
          "internalType": "address",
          "name": "offerer",
          "type": "address"
        },
        {
          "internalType": "address",
          "name": "reciever",
          "type": "address"
        }
      ],
      "stateMutability": "view",
      "type": "function"
    },
    {
      "inputs": [
        {
          "internalType": "address",
          "name": "",
          "type": "address"
        },
        {
          "internalType": "uint256",
          "name": "",
          "type": "uint256"
        }
      ],
      "name": "openTrades",
      "outputs": [
        {
          "internalType": "address",
          "name": "offerer",
          "type": "address"
        },
        {
          "internalType": "address",
          "name": "reciever",
          "type": "address"
        }
      ],
      "stateMutability": "view",
      "type": "function"
    },
    {
      "inputs": [],
      "name": "owner",
      "outputs": [
        {
          "internalType": "address",
          "name": "",
          "type": "address"
        }
      ],
      "stateMutability": "view",
      "type": "function"
    },
    {
      "inputs": [
        {
          "internalType": "uint256",
          "name": "tokenId",
          "type": "uint256"
        }
      ],
      "name": "ownerOf",
      "outputs": [
        {
          "internalType": "address",
          "name": "",
          "type": "address"
        }
      ],
      "stateMutability": "view",
      "type": "function"
    },
    {
      "inputs": [],
      "name": "renounceOwnership",
      "outputs": [],
      "stateMutability": "nonpayable",
      "type": "function"
    },
    {
      "inputs": [
        {
          "internalType": "address",
          "name": "from",
          "type": "address"
        },
        {
          "internalType": "address",
          "name": "to",
          "type": "address"
        },
        {
          "internalType": "uint256",
          "name": "tokenId",
          "type": "uint256"
        }
      ],
      "name": "safeTransferFrom",
      "outputs": [],
      "stateMutability": "nonpayable",
      "type": "function"
    },
    {
      "inputs": [
        {
          "internalType": "address",
          "name": "from",
          "type": "address"
        },
        {
          "internalType": "address",
          "name": "to",
          "type": "address"
        },
        {
          "internalType": "uint256",
          "name": "tokenId",
          "type": "uint256"
        },
        {
          "internalType": "bytes",
          "name": "data",
          "type": "bytes"
        }
      ],
      "name": "safeTransferFrom",
      "outputs": [],
      "stateMutability": "nonpayable",
      "type": "function"
    },
    {
      "inputs": [
        {
          "internalType": "address",
          "name": "operator",
          "type": "address"
        },
        {
          "internalType": "bool",
          "name": "approved",
          "type": "bool"
        }
      ],
      "name": "setApprovalForAll",
      "outputs": [],
      "stateMutability": "nonpayable",
      "type": "function"
    },
    {
      "inputs": [
        {
          "internalType": "bytes4",
          "name": "interfaceId",
          "type": "bytes4"
        }
      ],
      "name": "supportsInterface",
      "outputs": [
        {
          "internalType": "bool",
          "name": "",
          "type": "bool"
        }
      ],
      "stateMutability": "view",
      "type": "function"
    },
    {
      "inputs": [],
      "name": "symbol",
      "outputs": [
        {
          "internalType": "string",
          "name": "",
          "type": "string"
        }
      ],
      "stateMutability": "view",
      "type": "function"
    },
    {
      "inputs": [
        {
          "internalType": "address",
          "name": "from",
          "type": "address"
        },
        {
          "internalType": "address",
          "name": "to",
          "type": "address"
        },
        {
          "internalType": "uint256",
          "name": "tokenId",
          "type": "uint256"
        }
      ],
      "name": "transferFrom",
      "outputs": [],
      "stateMutability": "nonpayable",
      "type": "function"
    },
    {
      "inputs": [
        {
          "internalType": "address",
          "name": "newOwner",
          "type": "address"
        }
      ],
      "name": "transferOwnership",
      "outputs": [],
      "stateMutability": "nonpayable",
      "type": "function"
    },
    {
      "inputs": [
        {
          "internalType": "address",
          "name": "to",
          "type": "address"
        },
        {
          "internalType": "string",
          "name": "uri",
          "type": "string"
        }
      ],
      "name": "safeMint",
      "outputs": [],
      "stateMutability": "nonpayable",
      "type": "function"
    },
    {
      "inputs": [
        {
          "internalType": "uint256[4]",
          "name": "tokenIds",
          "type": "uint256[4]"
        }
      ],
      "name": "CombineCards",
      "outputs": [],
      "stateMutability": "nonpayable",
      "type": "function"
    },
    {
      "inputs": [
        {
          "internalType": "uint256",
          "name": "tokenId",
          "type": "uint256"
        }
      ],
      "name": "tokenURI",
      "outputs": [
        {
          "internalType": "string",
          "name": "",
          "type": "string"
        }
      ],
      "stateMutability": "view",
      "type": "function"
    }
  ],
  "bytecode": "0x60806040523480156200001157600080fd5b506040518060400160405280600a81526020017f4e46544320546f6b656e000000000000000000000000000000000000000000008152506040518060400160405280600481526020017f4e4654430000000000000000000000000000000000000000000000000000000081525081600090816200008f919062000412565b508060019081620000a1919062000412565b505050620000c4620000b8620000ca60201b60201c565b620000d260201b60201c565b620004f9565b600033905090565b6000600760009054906101000a900473ffffffffffffffffffffffffffffffffffffffff16905081600760006101000a81548173ffffffffffffffffffffffffffffffffffffffff021916908373ffffffffffffffffffffffffffffffffffffffff1602179055508173ffffffffffffffffffffffffffffffffffffffff168173ffffffffffffffffffffffffffffffffffffffff167f8be0079c531659141344cd1fd0a4f28419497f9722a3daafe3b4186f6b6457e060405160405180910390a35050565b600081519050919050565b7f4e487b7100000000000000000000000000000000000000000000000000000000600052604160045260246000fd5b7f4e487b7100000000000000000000000000000000000000000000000000000000600052602260045260246000fd5b600060028204905060018216806200021a57607f821691505b60208210810362000230576200022f620001d2565b5b50919050565b60008190508160005260206000209050919050565b60006020601f8301049050919050565b600082821b905092915050565b6000600883026200029a7fffffffffffffffffffffffffffffffffffffffffffffffffffffffffffffffff826200025b565b620002a686836200025b565b95508019841693508086168417925050509392505050565b6000819050919050565b6000819050919050565b6000620002f3620002ed620002e784620002be565b620002c8565b620002be565b9050919050565b6000819050919050565b6200030f83620002d2565b620003276200031e82620002fa565b84845462000268565b825550505050565b600090565b6200033e6200032f565b6200034b81848462000304565b505050565b5b8181101562000373576200036760008262000334565b60018101905062000351565b5050565b601f821115620003c2576200038c8162000236565b62000397846200024b565b81016020851015620003a7578190505b620003bf620003b6856200024b565b83018262000350565b50505b505050565b600082821c905092915050565b6000620003e760001984600802620003c7565b1980831691505092915050565b6000620004028383620003d4565b9150826002028217905092915050565b6200041d8262000198565b67ffffffffffffffff811115620004395762000438620001a3565b5b62000445825462000201565b6200045282828562000377565b600060209050601f8311600181146200048a576000841562000475578287015190505b620004818582620003f4565b865550620004f1565b601f1984166200049a8662000236565b60005b82811015620004c4578489015182556001820191506020850194506020810190506200049d565b86831015620004e45784890151620004e0601f891682620003d4565b8355505b6001600288020188555050505b505050505050565b6139f680620005096000396000f3fe608060405234801561001057600080fd5b50600436106101425760003560e01c8063715018a6116100b8578063b5c6312e1161007c578063b5c6312e14610375578063b88d4fde146103a9578063c87b56dd146103c5578063d204c45e146103f5578063e985e9c514610411578063f2fde38b1461044157610142565b8063715018a6146102e25780638d1bf457146102ec5780638da5cb5b1461031d57806395d89b411461033b578063a22cb4651461035957610142565b806323b872dd1161010a57806323b872dd146102125780632fb63a3c1461022e57806342842e0e1461024a57806342966c68146102665780636352211e1461028257806370a08231146102b257610142565b806301ffc9a71461014757806306fdde0314610177578063081812fc14610195578063095ea7b3146101c557806317cf3c95146101e1575b600080fd5b610161600480360381019061015c9190612428565b61045d565b60405161016e9190612470565b60405180910390f35b61017f61053f565b60405161018c9190612524565b60405180910390f35b6101af60048036038101906101aa919061257c565b6105d1565b6040516101bc91906125ea565b60405180910390f35b6101df60048036038101906101da9190612631565b610617565b005b6101fb60048036038101906101f69190612631565b61072e565b604051610209929190612671565b60405180910390f35b61022c6004803603810190610227919061269a565b6107af565b005b61024860048036038101906102439190612714565b61080f565b005b610264600480360381019061025f919061269a565b610a0c565b005b610280600480360381019061027b919061257c565b610a2c565b005b61029c6004803603810190610297919061257c565b610a88565b6040516102a991906125ea565b60405180910390f35b6102cc60048036038101906102c79190612741565b610b39565b6040516102d9919061277d565b60405180910390f35b6102ea610bf0565b005b61030660048036038101906103019190612631565b610c04565b604051610314929190612671565b60405180910390f35b610325610c85565b60405161033291906125ea565b60405180910390f35b610343610caf565b6040516103509190612524565b60405180910390f35b610373600480360381019061036e91906127c4565b610d41565b005b61038f600480360381019061038a919061257c565b610d57565b6040516103a0959493929190612820565b60405180910390f35b6103c360048036038101906103be91906129a8565b610dc1565b005b6103df60048036038101906103da919061257c565b610e23565b6040516103ec9190612524565b60405180910390f35b61040f600480360381019061040a9190612acc565b610e35565b005b61042b60048036038101906104269190612b28565b610e77565b6040516104389190612470565b60405180910390f35b61045b60048036038101906104569190612741565b610f0b565b005b60007f80ac58cd000000000000000000000000000000000000000000000000000000007bffffffffffffffffffffffffffffffffffffffffffffffffffffffff1916827bffffffffffffffffffffffffffffffffffffffffffffffffffffffff1916148061052857507f5b5e139f000000000000000000000000000000000000000000000000000000007bffffffffffffffffffffffffffffffffffffffffffffffffffffffff1916827bffffffffffffffffffffffffffffffffffffffffffffffffffffffff1916145b80610538575061053782610f8e565b5b9050919050565b60606000805461054e90612b97565b80601f016020809104026020016040519081016040528092919081815260200182805461057a90612b97565b80156105c75780601f1061059c576101008083540402835291602001916105c7565b820191906000526020600020905b8154815290600101906020018083116105aa57829003601f168201915b5050505050905090565b60006105dc82610ff8565b6004600083815260200190815260200160002060009054906101000a900473ffffffffffffffffffffffffffffffffffffffff169050919050565b600061062282610a88565b90508073ffffffffffffffffffffffffffffffffffffffff168373ffffffffffffffffffffffffffffffffffffffff1603610692576040517f08c379a000000000000000000000000000000000000000000000000000000000815260040161068990612c3a565b60405180910390fd5b8073ffffffffffffffffffffffffffffffffffffffff166106b1611043565b73ffffffffffffffffffffffffffffffffffffffff1614806106e057506106df816106da611043565b610e77565b5b61071f576040517f08c379a000000000000000000000000000000000000000000000000000000000815260040161071690612ccc565b60405180910390fd5b610729838361104b565b505050565b6009602052816000526040600020818154811061074a57600080fd5b9060005260206000209060040201600091509150508060000160009054906101000a900473ffffffffffffffffffffffffffffffffffffffff16908060010160009054906101000a900473ffffffffffffffffffffffffffffffffffffffff16905082565b6107c06107ba611043565b82611104565b6107ff576040517f08c379a00000000000000000000000000000000000000000000000000000000081526004016107f690612d5e565b60405180910390fd5b61080a838383611199565b505050565b60003390506000600b60008460006004811061082e5761082d612d7e565b5b6020020135815260200190815260200160002060000160009054906101000a900460ff16905060005b60048160ff1610156109ae578273ffffffffffffffffffffffffffffffffffffffff1661089d858360ff166004811061089357610892612d7e565b5b6020020135610a88565b73ffffffffffffffffffffffffffffffffffffffff16146108f3576040517f08c379a00000000000000000000000000000000000000000000000000000000081526004016108ea90612df9565b60405180910390fd5b8160ff16600b6000868460ff166004811061091157610910612d7e565b5b6020020135815260200190815260200160002060000160009054906101000a900460ff1660ff1614610978576040517f08c379a000000000000000000000000000000000000000000000000000000000815260040161096f90612e65565b60405180910390fd5b61099b848260ff166004811061099157610990612d7e565b5b60200201356111d7565b80806109a690612eb4565b915050610857565b5060006001826109be9190612edd565b905060006109cc60086112a3565b90506109d860086112b1565b6109e284826112c7565b6109fb81604051806020016040528060008152506112e5565b610a058183611352565b5050505050565b610a2783838360405180602001604052806000815250610dc1565b505050565b610a3d610a37611043565b82611104565b610a7c576040517f08c379a0000000000000000000000000000000000000000000000000000000008152600401610a7390612d5e565b60405180910390fd5b610a85816111d7565b50565b6000806002600084815260200190815260200160002060009054906101000a900473ffffffffffffffffffffffffffffffffffffffff169050600073ffffffffffffffffffffffffffffffffffffffff168173ffffffffffffffffffffffffffffffffffffffff1603610b30576040517f08c379a0000000000000000000000000000000000000000000000000000000008152600401610b2790612f60565b60405180910390fd5b80915050919050565b60008073ffffffffffffffffffffffffffffffffffffffff168273ffffffffffffffffffffffffffffffffffffffff1603610ba9576040517f08c379a0000000000000000000000000000000000000000000000000000000008152600401610ba090612ff2565b60405180910390fd5b600360008373ffffffffffffffffffffffffffffffffffffffff1673ffffffffffffffffffffffffffffffffffffffff168152602001908152602001600020549050919050565b610bf861142a565b610c0260006114a8565b565b600a6020528160005260406000208181548110610c2057600080fd5b9060005260206000209060040201600091509150508060000160009054906101000a900473ffffffffffffffffffffffffffffffffffffffff16908060010160009054906101000a900473ffffffffffffffffffffffffffffffffffffffff16905082565b6000600760009054906101000a900473ffffffffffffffffffffffffffffffffffffffff16905090565b606060018054610cbe90612b97565b80601f0160208091040260200160405190810160405280929190818152602001828054610cea90612b97565b8015610d375780601f10610d0c57610100808354040283529160200191610d37565b820191906000526020600020905b815481529060010190602001808311610d1a57829003601f168201915b5050505050905090565b610d53610d4c611043565b838361156e565b5050565b600b6020528060005260406000206000915090508060000160009054906101000a900460ff16908060000160019054906101000a900460ff16908060000160029054906101000a900460ff16908060000160039054906101000a900460ff16908060010154905085565b610dd2610dcc611043565b83611104565b610e11576040517f08c379a0000000000000000000000000000000000000000000000000000000008152600401610e0890612d5e565b60405180910390fd5b610e1d848484846116da565b50505050565b6060610e2e82611736565b9050919050565b610e3d61142a565b6000610e4960086112a3565b9050610e5560086112b1565b610e5f83826112c7565b610e6981836112e5565b610e7281611848565b505050565b6000600560008473ffffffffffffffffffffffffffffffffffffffff1673ffffffffffffffffffffffffffffffffffffffff16815260200190815260200160002060008373ffffffffffffffffffffffffffffffffffffffff1673ffffffffffffffffffffffffffffffffffffffff16815260200190815260200160002060009054906101000a900460ff16905092915050565b610f1361142a565b600073ffffffffffffffffffffffffffffffffffffffff168173ffffffffffffffffffffffffffffffffffffffff1603610f82576040517f08c379a0000000000000000000000000000000000000000000000000000000008152600401610f7990613084565b60405180910390fd5b610f8b816114a8565b50565b60007f01ffc9a7000000000000000000000000000000000000000000000000000000007bffffffffffffffffffffffffffffffffffffffffffffffffffffffff1916827bffffffffffffffffffffffffffffffffffffffffffffffffffffffff1916149050919050565b61100181611894565b611040576040517f08c379a000000000000000000000000000000000000000000000000000000000815260040161103790612f60565b60405180910390fd5b50565b600033905090565b816004600083815260200190815260200160002060006101000a81548173ffffffffffffffffffffffffffffffffffffffff021916908373ffffffffffffffffffffffffffffffffffffffff160217905550808273ffffffffffffffffffffffffffffffffffffffff166110be83610a88565b73ffffffffffffffffffffffffffffffffffffffff167f8c5be1e5ebec7d5bd14f71427d1e84f3dd0314c0f7b2291e5b200ac8c7c3b92560405160405180910390a45050565b60008061111083610a88565b90508073ffffffffffffffffffffffffffffffffffffffff168473ffffffffffffffffffffffffffffffffffffffff16148061115257506111518185610e77565b5b8061119057508373ffffffffffffffffffffffffffffffffffffffff16611178846105d1565b73ffffffffffffffffffffffffffffffffffffffff16145b91505092915050565b6111a4838383611900565b6001600b600083815260200190815260200160002060010160008282546111cb91906130a4565b92505081905550505050565b6000600b600083815260200190815260200160002060000160006101000a81548160ff021916908360ff1602179055506000600b600083815260200190815260200160002060000160016101000a81548160ff021916908360ff1602179055506000600b600083815260200190815260200160002060000160026101000a81548160ff021916908360ff1602179055506000600b600083815260200190815260200160002060000160036101000a81548160ff021916908360ff1602179055506112a081611b66565b50565b600081600001549050919050565b6001816000016000828254019250508190555050565b6112e1828260405180602001604052806000815250611bb9565b5050565b6112ee82611894565b61132d576040517f08c379a00000000000000000000000000000000000000000000000000000000081526004016113249061316c565b60405180910390fd5b8060066000848152602001908152602001600020908161134d9190613338565b505050565b80600b600084815260200190815260200160002060000160006101000a81548160ff021916908360ff16021790555061138a81611c14565b600b600084815260200190815260200160002060000160016101000a81548160ff021916908360ff1602179055506113c181611c14565b600b600084815260200190815260200160002060000160026101000a81548160ff021916908360ff1602179055506113f881611c14565b600b600084815260200190815260200160002060000160036101000a81548160ff021916908360ff1602179055505050565b611432611043565b73ffffffffffffffffffffffffffffffffffffffff16611450610c85565b73ffffffffffffffffffffffffffffffffffffffff16146114a6576040517f08c379a000000000000000000000000000000000000000000000000000000000815260040161149d90613456565b60405180910390fd5b565b6000600760009054906101000a900473ffffffffffffffffffffffffffffffffffffffff16905081600760006101000a81548173ffffffffffffffffffffffffffffffffffffffff021916908373ffffffffffffffffffffffffffffffffffffffff1602179055508173ffffffffffffffffffffffffffffffffffffffff168173ffffffffffffffffffffffffffffffffffffffff167f8be0079c531659141344cd1fd0a4f28419497f9722a3daafe3b4186f6b6457e060405160405180910390a35050565b8173ffffffffffffffffffffffffffffffffffffffff168373ffffffffffffffffffffffffffffffffffffffff16036115dc576040517f08c379a00000000000000000000000000000000000000000000000000000000081526004016115d3906134c2565b60405180910390fd5b80600560008573ffffffffffffffffffffffffffffffffffffffff1673ffffffffffffffffffffffffffffffffffffffff16815260200190815260200160002060008473ffffffffffffffffffffffffffffffffffffffff1673ffffffffffffffffffffffffffffffffffffffff16815260200190815260200160002060006101000a81548160ff0219169083151502179055508173ffffffffffffffffffffffffffffffffffffffff168373ffffffffffffffffffffffffffffffffffffffff167f17307eab39ab6107e8899845ad3d59bd9653f200f220920489ca2b5937696c31836040516116cd9190612470565b60405180910390a3505050565b6116e5848484611199565b6116f184848484611c68565b611730576040517f08c379a000000000000000000000000000000000000000000000000000000000815260040161172790613554565b60405180910390fd5b50505050565b606061174182610ff8565b600060066000848152602001908152602001600020805461176190612b97565b80601f016020809104026020016040519081016040528092919081815260200182805461178d90612b97565b80156117da5780601f106117af576101008083540402835291602001916117da565b820191906000526020600020905b8154815290600101906020018083116117bd57829003601f168201915b5050505050905060006117eb611def565b90506000815103611800578192505050611843565b60008251111561183557808260405160200161181d9291906135b0565b60405160208183030381529060405292505050611843565b61183e84611e2c565b925050505b919050565b60006005611854611e94565b60ff16116118655760019050611886565b600661186f611e94565b60ff16116118805760029050611885565b600390505b5b6118908282611352565b5050565b60008073ffffffffffffffffffffffffffffffffffffffff166002600084815260200190815260200160002060009054906101000a900473ffffffffffffffffffffffffffffffffffffffff1673ffffffffffffffffffffffffffffffffffffffff1614159050919050565b8273ffffffffffffffffffffffffffffffffffffffff1661192082610a88565b73ffffffffffffffffffffffffffffffffffffffff1614611976576040517f08c379a000000000000000000000000000000000000000000000000000000000815260040161196d90613646565b60405180910390fd5b600073ffffffffffffffffffffffffffffffffffffffff168273ffffffffffffffffffffffffffffffffffffffff16036119e5576040517f08c379a00000000000000000000000000000000000000000000000000000000081526004016119dc906136d8565b60405180910390fd5b6119f0838383611edc565b6119fb60008261104b565b6001600360008573ffffffffffffffffffffffffffffffffffffffff1673ffffffffffffffffffffffffffffffffffffffff1681526020019081526020016000206000828254611a4b91906136f8565b925050819055506001600360008473ffffffffffffffffffffffffffffffffffffffff1673ffffffffffffffffffffffffffffffffffffffff1681526020019081526020016000206000828254611aa291906130a4565b92505081905550816002600083815260200190815260200160002060006101000a81548173ffffffffffffffffffffffffffffffffffffffff021916908373ffffffffffffffffffffffffffffffffffffffff160217905550808273ffffffffffffffffffffffffffffffffffffffff168473ffffffffffffffffffffffffffffffffffffffff167fddf252ad1be2c89b69c2b068fc378daa952ba7f163c4a11628f55a4df523b3ef60405160405180910390a4611b61838383611ee1565b505050565b611b6f81611ee6565b6000600660008381526020019081526020016000208054611b8f90612b97565b905014611bb657600660008281526020019081526020016000206000611bb5919061235f565b5b50565b611bc38383612003565b611bd06000848484611c68565b611c0f576040517f08c379a0000000000000000000000000000000000000000000000000000000008152600401611c0690613554565b60405180910390fd5b505050565b6000806000905060005b8360ff168160ff161015611c5e576000611c36611e94565b90508260ff168160ff161115611c4a578092505b508080611c5690612eb4565b915050611c1e565b5080915050919050565b6000611c898473ffffffffffffffffffffffffffffffffffffffff166121dc565b15611de2578373ffffffffffffffffffffffffffffffffffffffff1663150b7a02611cb2611043565b8786866040518563ffffffff1660e01b8152600401611cd49493929190613781565b6020604051808303816000875af1925050508015611d1057506040513d601f19601f82011682018060405250810190611d0d91906137e2565b60015b611d92573d8060008114611d40576040519150601f19603f3d011682016040523d82523d6000602084013e611d45565b606091505b506000815103611d8a576040517f08c379a0000000000000000000000000000000000000000000000000000000008152600401611d8190613554565b60405180910390fd5b805181602001fd5b63150b7a0260e01b7bffffffffffffffffffffffffffffffffffffffffffffffffffffffff1916817bffffffffffffffffffffffffffffffffffffffffffffffffffffffff191614915050611de7565b600190505b949350505050565b60606040518060400160405280600e81526020017f6373686172652e646b2f6e66742f000000000000000000000000000000000000815250905090565b6060611e3782610ff8565b6000611e41611def565b90506000815111611e615760405180602001604052806000815250611e8c565b80611e6b846121ff565b604051602001611e7c9291906135b0565b6040516020818303038152906040525b915050919050565b600060085a42611ea491906130a4565b604051602001611eb4919061277d565b6040516020818303038152906040528051906020012060001c611ed7919061383e565b905090565b505050565b505050565b6000611ef182610a88565b9050611eff81600084611edc565b611f0a60008361104b565b6001600360008373ffffffffffffffffffffffffffffffffffffffff1673ffffffffffffffffffffffffffffffffffffffff1681526020019081526020016000206000828254611f5a91906136f8565b925050819055506002600083815260200190815260200160002060006101000a81549073ffffffffffffffffffffffffffffffffffffffff021916905581600073ffffffffffffffffffffffffffffffffffffffff168273ffffffffffffffffffffffffffffffffffffffff167fddf252ad1be2c89b69c2b068fc378daa952ba7f163c4a11628f55a4df523b3ef60405160405180910390a4611fff81600084611ee1565b5050565b600073ffffffffffffffffffffffffffffffffffffffff168273ffffffffffffffffffffffffffffffffffffffff1603612072576040517f08c379a0000000000000000000000000000000000000000000000000000000008152600401612069906138bb565b60405180910390fd5b61207b81611894565b156120bb576040517f08c379a00000000000000000000000000000000000000000000000000000000081526004016120b290613927565b60405180910390fd5b6120c760008383611edc565b6001600360008473ffffffffffffffffffffffffffffffffffffffff1673ffffffffffffffffffffffffffffffffffffffff168152602001908152602001600020600082825461211791906130a4565b92505081905550816002600083815260200190815260200160002060006101000a81548173ffffffffffffffffffffffffffffffffffffffff021916908373ffffffffffffffffffffffffffffffffffffffff160217905550808273ffffffffffffffffffffffffffffffffffffffff16600073ffffffffffffffffffffffffffffffffffffffff167fddf252ad1be2c89b69c2b068fc378daa952ba7f163c4a11628f55a4df523b3ef60405160405180910390a46121d860008383611ee1565b5050565b6000808273ffffffffffffffffffffffffffffffffffffffff163b119050919050565b606060008203612246576040518060400160405280600181526020017f3000000000000000000000000000000000000000000000000000000000000000815250905061235a565b600082905060005b6000821461227857808061226190613947565b915050600a82612271919061398f565b915061224e565b60008167ffffffffffffffff8111156122945761229361287d565b5b6040519080825280601f01601f1916602001820160405280156122c65781602001600182028036833780820191505090505b5090505b60008514612353576001826122df91906136f8565b9150600a856122ee919061383e565b60306122fa91906130a4565b60f81b8183815181106123105761230f612d7e565b5b60200101907effffffffffffffffffffffffffffffffffffffffffffffffffffffffffffff1916908160001a905350600a8561234c919061398f565b94506122ca565b8093505050505b919050565b50805461236b90612b97565b6000825580601f1061237d575061239c565b601f01602090049060005260206000209081019061239b919061239f565b5b50565b5b808211156123b85760008160009055506001016123a0565b5090565b6000604051905090565b600080fd5b600080fd5b60007fffffffff0000000000000000000000000000000000000000000000000000000082169050919050565b612405816123d0565b811461241057600080fd5b50565b600081359050612422816123fc565b92915050565b60006020828403121561243e5761243d6123c6565b5b600061244c84828501612413565b91505092915050565b60008115159050919050565b61246a81612455565b82525050565b60006020820190506124856000830184612461565b92915050565b600081519050919050565b600082825260208201905092915050565b60005b838110156124c55780820151818401526020810190506124aa565b838111156124d4576000848401525b50505050565b6000601f19601f8301169050919050565b60006124f68261248b565b6125008185612496565b93506125108185602086016124a7565b612519816124da565b840191505092915050565b6000602082019050818103600083015261253e81846124eb565b905092915050565b6000819050919050565b61255981612546565b811461256457600080fd5b50565b60008135905061257681612550565b92915050565b600060208284031215612592576125916123c6565b5b60006125a084828501612567565b91505092915050565b600073ffffffffffffffffffffffffffffffffffffffff82169050919050565b60006125d4826125a9565b9050919050565b6125e4816125c9565b82525050565b60006020820190506125ff60008301846125db565b92915050565b61260e816125c9565b811461261957600080fd5b50565b60008135905061262b81612605565b92915050565b60008060408385031215612648576126476123c6565b5b60006126568582860161261c565b925050602061266785828601612567565b9150509250929050565b600060408201905061268660008301856125db565b61269360208301846125db565b9392505050565b6000806000606084860312156126b3576126b26123c6565b5b60006126c18682870161261c565b93505060206126d28682870161261c565b92505060406126e386828701612567565b9150509250925092565b600080fd5b60008190508260206004028201111561270e5761270d6126ed565b5b92915050565b60006080828403121561272a576127296123c6565b5b6000612738848285016126f2565b91505092915050565b600060208284031215612757576127566123c6565b5b60006127658482850161261c565b91505092915050565b61277781612546565b82525050565b6000602082019050612792600083018461276e565b92915050565b6127a181612455565b81146127ac57600080fd5b50565b6000813590506127be81612798565b92915050565b600080604083850312156127db576127da6123c6565b5b60006127e98582860161261c565b92505060206127fa858286016127af565b9150509250929050565b600060ff82169050919050565b61281a81612804565b82525050565b600060a0820190506128356000830188612811565b6128426020830187612811565b61284f6040830186612811565b61285c6060830185612811565b612869608083018461276e565b9695505050505050565b600080fd5b600080fd5b7f4e487b7100000000000000000000000000000000000000000000000000000000600052604160045260246000fd5b6128b5826124da565b810181811067ffffffffffffffff821117156128d4576128d361287d565b5b80604052505050565b60006128e76123bc565b90506128f382826128ac565b919050565b600067ffffffffffffffff8211156129135761291261287d565b5b61291c826124da565b9050602081019050919050565b82818337600083830152505050565b600061294b612946846128f8565b6128dd565b90508281526020810184848401111561296757612966612878565b5b612972848285612929565b509392505050565b600082601f83011261298f5761298e612873565b5b813561299f848260208601612938565b91505092915050565b600080600080608085870312156129c2576129c16123c6565b5b60006129d08782880161261c565b94505060206129e18782880161261c565b93505060406129f287828801612567565b925050606085013567ffffffffffffffff811115612a1357612a126123cb565b5b612a1f8782880161297a565b91505092959194509250565b600067ffffffffffffffff821115612a4657612a4561287d565b5b612a4f826124da565b9050602081019050919050565b6000612a6f612a6a84612a2b565b6128dd565b905082815260208101848484011115612a8b57612a8a612878565b5b612a96848285612929565b509392505050565b600082601f830112612ab357612ab2612873565b5b8135612ac3848260208601612a5c565b91505092915050565b60008060408385031215612ae357612ae26123c6565b5b6000612af18582860161261c565b925050602083013567ffffffffffffffff811115612b1257612b116123cb565b5b612b1e85828601612a9e565b9150509250929050565b60008060408385031215612b3f57612b3e6123c6565b5b6000612b4d8582860161261c565b9250506020612b5e8582860161261c565b9150509250929050565b7f4e487b7100000000000000000000000000000000000000000000000000000000600052602260045260246000fd5b60006002820490506001821680612baf57607f821691505b602082108103612bc257612bc1612b68565b5b50919050565b7f4552433732313a20617070726f76616c20746f2063757272656e74206f776e6560008201527f7200000000000000000000000000000000000000000000000000000000000000602082015250565b6000612c24602183612496565b9150612c2f82612bc8565b604082019050919050565b60006020820190508181036000830152612c5381612c17565b9050919050565b7f4552433732313a20617070726f76652063616c6c6572206973206e6f7420746f60008201527f6b656e206f776e6572206e6f7220617070726f76656420666f7220616c6c0000602082015250565b6000612cb6603e83612496565b9150612cc182612c5a565b604082019050919050565b60006020820190508181036000830152612ce581612ca9565b9050919050565b7f4552433732313a2063616c6c6572206973206e6f7420746f6b656e206f776e6560008201527f72206e6f7220617070726f766564000000000000000000000000000000000000602082015250565b6000612d48602e83612496565b9150612d5382612cec565b604082019050919050565b60006020820190508181036000830152612d7781612d3b565b9050919050565b7f4e487b7100000000000000000000000000000000000000000000000000000000600052603260045260246000fd5b7f53656e64657220646f65736e2774206f776e2063617264000000000000000000600082015250565b6000612de3601783612496565b9150612dee82612dad565b602082019050919050565b60006020820190508181036000830152612e1281612dd6565b9050919050565b7f4361726473206172656e27742073616d65207261726974790000000000000000600082015250565b6000612e4f601883612496565b9150612e5a82612e19565b602082019050919050565b60006020820190508181036000830152612e7e81612e42565b9050919050565b7f4e487b7100000000000000000000000000000000000000000000000000000000600052601160045260246000fd5b6000612ebf82612804565b915060ff8203612ed257612ed1612e85565b5b600182019050919050565b6000612ee882612804565b9150612ef383612804565b92508260ff03821115612f0957612f08612e85565b5b828201905092915050565b7f4552433732313a20696e76616c696420746f6b656e2049440000000000000000600082015250565b6000612f4a601883612496565b9150612f5582612f14565b602082019050919050565b60006020820190508181036000830152612f7981612f3d565b9050919050565b7f4552433732313a2061646472657373207a65726f206973206e6f74206120766160008201527f6c6964206f776e65720000000000000000000000000000000000000000000000602082015250565b6000612fdc602983612496565b9150612fe782612f80565b604082019050919050565b6000602082019050818103600083015261300b81612fcf565b9050919050565b7f4f776e61626c653a206e6577206f776e657220697320746865207a65726f206160008201527f6464726573730000000000000000000000000000000000000000000000000000602082015250565b600061306e602683612496565b915061307982613012565b604082019050919050565b6000602082019050818103600083015261309d81613061565b9050919050565b60006130af82612546565b91506130ba83612546565b9250827fffffffffffffffffffffffffffffffffffffffffffffffffffffffffffffffff038211156130ef576130ee612e85565b5b828201905092915050565b7f45524337323155524953746f726167653a2055524920736574206f66206e6f6e60008201527f6578697374656e7420746f6b656e000000000000000000000000000000000000602082015250565b6000613156602e83612496565b9150613161826130fa565b604082019050919050565b6000602082019050818103600083015261318581613149565b9050919050565b60008190508160005260206000209050919050565b60006020601f8301049050919050565b600082821b905092915050565b6000600883026131ee7fffffffffffffffffffffffffffffffffffffffffffffffffffffffffffffffff826131b1565b6131f886836131b1565b95508019841693508086168417925050509392505050565b6000819050919050565b600061323561323061322b84612546565b613210565b612546565b9050919050565b6000819050919050565b61324f8361321a565b61326361325b8261323c565b8484546131be565b825550505050565b600090565b61327861326b565b613283818484613246565b505050565b5b818110156132a75761329c600082613270565b600181019050613289565b5050565b601f8211156132ec576132bd8161318c565b6132c6846131a1565b810160208510156132d5578190505b6132e96132e1856131a1565b830182613288565b50505b505050565b600082821c905092915050565b600061330f600019846008026132f1565b1980831691505092915050565b600061332883836132fe565b9150826002028217905092915050565b6133418261248b565b67ffffffffffffffff81111561335a5761335961287d565b5b6133648254612b97565b61336f8282856132ab565b600060209050601f8311600181146133a25760008415613390578287015190505b61339a858261331c565b865550613402565b601f1984166133b08661318c565b60005b828110156133d8578489015182556001820191506020850194506020810190506133b3565b868310156133f557848901516133f1601f8916826132fe565b8355505b6001600288020188555050505b505050505050565b7f4f776e61626c653a2063616c6c6572206973206e6f7420746865206f776e6572600082015250565b6000613440602083612496565b915061344b8261340a565b602082019050919050565b6000602082019050818103600083015261346f81613433565b9050919050565b7f4552433732313a20617070726f766520746f2063616c6c657200000000000000600082015250565b60006134ac601983612496565b91506134b782613476565b602082019050919050565b600060208201905081810360008301526134db8161349f565b9050919050565b7f4552433732313a207472616e7366657220746f206e6f6e20455243373231526560008201527f63656976657220696d706c656d656e7465720000000000000000000000000000602082015250565b600061353e603283612496565b9150613549826134e2565b604082019050919050565b6000602082019050818103600083015261356d81613531565b9050919050565b600081905092915050565b600061358a8261248b565b6135948185613574565b93506135a48185602086016124a7565b80840191505092915050565b60006135bc828561357f565b91506135c8828461357f565b91508190509392505050565b7f4552433732313a207472616e736665722066726f6d20696e636f72726563742060008201527f6f776e6572000000000000000000000000000000000000000000000000000000602082015250565b6000613630602583612496565b915061363b826135d4565b604082019050919050565b6000602082019050818103600083015261365f81613623565b9050919050565b7f4552433732313a207472616e7366657220746f20746865207a65726f2061646460008201527f7265737300000000000000000000000000000000000000000000000000000000602082015250565b60006136c2602483612496565b91506136cd82613666565b604082019050919050565b600060208201905081810360008301526136f1816136b5565b9050919050565b600061370382612546565b915061370e83612546565b92508282101561372157613720612e85565b5b828203905092915050565b600081519050919050565b600082825260208201905092915050565b60006137538261372c565b61375d8185613737565b935061376d8185602086016124a7565b613776816124da565b840191505092915050565b600060808201905061379660008301876125db565b6137a360208301866125db565b6137b0604083018561276e565b81810360608301526137c28184613748565b905095945050505050565b6000815190506137dc816123fc565b92915050565b6000602082840312156137f8576137f76123c6565b5b6000613806848285016137cd565b91505092915050565b7f4e487b7100000000000000000000000000000000000000000000000000000000600052601260045260246000fd5b600061384982612546565b915061385483612546565b9250826138645761386361380f565b5b828206905092915050565b7f4552433732313a206d696e7420746f20746865207a65726f2061646472657373600082015250565b60006138a5602083612496565b91506138b08261386f565b602082019050919050565b600060208201905081810360008301526138d481613898565b9050919050565b7f4552433732313a20746f6b656e20616c7265616479206d696e74656400000000600082015250565b6000613911601c83612496565b915061391c826138db565b602082019050919050565b6000602082019050818103600083015261394081613904565b9050919050565b600061395282612546565b91507fffffffffffffffffffffffffffffffffffffffffffffffffffffffffffffffff820361398457613983612e85565b5b600182019050919050565b600061399a82612546565b91506139a583612546565b9250826139b5576139b461380f565b5b82820490509291505056fea2646970667358221220b7a66019e949e51ce96cf6577a85e092419a51ccb8cc9bda33c92f8798de809164736f6c634300080f0033",
  "immutableReferences": {},
  "source": "// SPDX-License-Identifier: MIT\npragma solidity ^0.8.4;\n\nimport \"@openzeppelin/contracts/token/ERC721/ERC721.sol\";\nimport \"@openzeppelin/contracts/token/ERC721/extensions/ERC721URIStorage.sol\";\nimport \"@openzeppelin/contracts/token/ERC721/extensions/ERC721Burnable.sol\";\nimport \"@openzeppelin/contracts/access/Ownable.sol\";\nimport \"@openzeppelin/contracts/utils/Counters.sol\";\n\ncontract TCGTok is ERC721, ERC721URIStorage, ERC721Burnable, Ownable {\n    using Counters for Counters.Counter;\n    Counters.Counter private _tokenIdCounter;\n    struct Trade{\n        address offerer;\n        address reciever;\n        uint256[] offers;\n        uint256[] wants;\n    }\n    mapping (address => Trade[]) public openTrades;\n    mapping (address => Trade[]) public openTradeOffers;\n    struct Statblok {\n        uint8 _rarity;\n        uint8 _str;\n        uint8 _def;\n        uint8 _hlt;\n        uint256 traded;\n    }\n    mapping(uint256 => Statblok) public _stats;\n\n    constructor() ERC721(\"NFTC Token\", \"NFTC\") {}\n\n    function _baseURI() internal pure override returns (string memory) {\n        return \"cshare.dk/nft/\";\n    }\n\n    function safeMint(address to, string memory uri) public onlyOwner {\n        uint256 tokenId = _tokenIdCounter.current();\n        _tokenIdCounter.increment();\n        _safeMint(to, tokenId);\n        _setTokenURI(tokenId, uri);\n        _setTokenStats(tokenId);\n    }\n\n    function _transfer(address from, address to, uint256 tokenId) internal override(ERC721) {\n        super._transfer(from, to, tokenId);\n        _stats[tokenId].traded += 1;\n    }\n\n    // Pseudo-random number gen(override when we get better ideas)\n    function _psdFun() internal view returns (uint8) {\n        return uint8(uint(keccak256(abi.encode(block.timestamp + gasleft()))) % 8);\n    }\n\n    // Roll with advantage: max(Nd8)\n    function _roll(uint8 N) internal view returns (uint8){\n        uint8 result = 0;\n        for(uint8 i = 0; i < N; i++){\n            uint8 tmp = _psdFun();\n            if (tmp > result)\n                result = tmp;\n        }\n        return result;\n    }\n\n    function _setTokenStats(uint256 tokenId) internal {\n        // Start with rarity\n        // 0-4 Common\n        // 5-6 uncommon\n        // 7   rare\n        uint8 rarity;\n        if (_psdFun() <= 5)\n            rarity = 1;\n        else if(_psdFun() <= 6)\n            rarity = 2;\n        else\n            rarity = 3;\n        _setTokenStats(tokenId, rarity);\n    }\n    function _setTokenStats(uint256 tokenId, uint8 rarity) internal {\n        _stats[tokenId]._rarity = rarity;\n        _stats[tokenId]._str = _roll(rarity);\n        _stats[tokenId]._def = _roll(rarity);\n        _stats[tokenId]._hlt = _roll(rarity);\n    }\n\n\n    // Given 4 cardId's of same rarity, mint a new token with rarity+1\n    function CombineCards(uint256[4] calldata tokenIds) public {\n        address newOwner = msg.sender;\n        uint8 oldRarity = _stats[tokenIds[0]]._rarity;\n        for(uint8 i = 0; i < 4; i++){\n            // Require user owns card and rarity is consistent\n            require(ownerOf(tokenIds[i]) == newOwner, \"Sender doesn't own card\");\n            require(_stats[tokenIds[i]]._rarity == oldRarity, \"Cards aren't same rarity\");\n            _burn(tokenIds[i]);\n        }\n        uint8 newRarity = oldRarity + 1;\n        // Minting\n        uint256 tokenId = _tokenIdCounter.current();\n        _tokenIdCounter.increment();\n        _safeMint(newOwner, tokenId);\n        _setTokenURI(tokenId, \"\");\n        _setTokenStats(tokenId,newRarity);\n    }\n\n\n    // The following functions are overrides required by Solidity.\n    function _burn(uint256 tokenId) internal override(ERC721, ERC721URIStorage) {\n        _stats[tokenId]._rarity = 0;\n        _stats[tokenId]._str = 0;\n        _stats[tokenId]._def = 0;\n        _stats[tokenId]._hlt = 0;\n        super._burn(tokenId);\n    }\n\n    function tokenURI(uint256 tokenId)\n        public\n        view\n        override(ERC721, ERC721URIStorage)\n        returns (string memory)\n    {\n        return super.tokenURI(tokenId);\n    }\n}\n",
  "sourcePath": "/Users/julianwulff/Documents/Datalogi_MSc/05_SBT/Project/contracts/TokenContract.sol",
  "compiler": {
    "name": "solc",
    "version": "0.8.15+commit.e14f2714.Emscripten.clang"
  },
  "schemaVersion": "3.4.8",
  "updatedAt": "2022-08-15T14:49:12.747Z",
  "devdoc": {
    "kind": "dev",
    "methods": {
      "approve(address,uint256)": {
        "details": "See {IERC721-approve}."
      },
      "balanceOf(address)": {
        "details": "See {IERC721-balanceOf}."
      },
      "burn(uint256)": {
        "details": "Burns `tokenId`. See {ERC721-_burn}. Requirements: - The caller must own `tokenId` or be an approved operator."
      },
      "getApproved(uint256)": {
        "details": "See {IERC721-getApproved}."
      },
      "isApprovedForAll(address,address)": {
        "details": "See {IERC721-isApprovedForAll}."
      },
      "name()": {
        "details": "See {IERC721Metadata-name}."
      },
      "owner()": {
        "details": "Returns the address of the current owner."
      },
      "ownerOf(uint256)": {
        "details": "See {IERC721-ownerOf}."
      },
      "renounceOwnership()": {
        "details": "Leaves the contract without owner. It will not be possible to call `onlyOwner` functions anymore. Can only be called by the current owner. NOTE: Renouncing ownership will leave the contract without an owner, thereby removing any functionality that is only available to the owner."
      },
      "safeTransferFrom(address,address,uint256)": {
        "details": "See {IERC721-safeTransferFrom}."
      },
      "safeTransferFrom(address,address,uint256,bytes)": {
        "details": "See {IERC721-safeTransferFrom}."
      },
      "setApprovalForAll(address,bool)": {
        "details": "See {IERC721-setApprovalForAll}."
      },
      "supportsInterface(bytes4)": {
        "details": "See {IERC165-supportsInterface}."
      },
      "symbol()": {
        "details": "See {IERC721Metadata-symbol}."
      },
      "transferFrom(address,address,uint256)": {
        "details": "See {IERC721-transferFrom}."
      },
      "transferOwnership(address)": {
        "details": "Transfers ownership of the contract to a new account (`newOwner`). Can only be called by the current owner."
      }
    },
    "version": 1
  },
  "userdoc": {
    "kind": "user",
    "methods": {},
    "version": 1
  }
}